:100000000C942A000C9447000C9447000C94470071
:100010000C9447000C9447000C9447000C94470044
:100020000C9447000C9447000C9447000C94470034
:100030000C9447000C9447000C9447000C94470024
:100040000C9447000C9447000C9447000C94470014
:100050000C94470011241FBECFE5D4E0DEBFCDBF16
:1000600010E0A0E6B0E0E8EFF2E002C005900D92EB
:10007000A838B107D9F710E0A8E8B0E001C01D9298
:10008000A838B107E1F70E94D5000C947A010C94CE
:100090000000282F207F28BBC298C39A20ED37E0AC
:1000A000F9013197F1F7C398F9013197F1F790E031
:1000B00044E0880F991F4A95E1F788BBC298C39A1C
:1000C000C9010197F1F7C398C9010197F1F70895A4
:1000D00082E090E00E94490088E290E00E9449009E
:1000E00086E090E00E9449008CE090E00E94490088
:1000F0000895282F207F28BBC29AC39A20ED37E0AD
:10010000F9013197F1F7C398F9013197F1F790E0D0
:1001100054E0880F991F5A95E1F788BBC29AC39A99
:10012000C9010197F1F7C398C9010197F1F7089543
:1001300081E00E94490080ED97E00197F1F7089572
:100140001F93CF93DF93EC0110E003C00E9479006E
:100150001F5FFE01E10FF11D80818823B9F7DF9158
:10016000CF911F910895CF93DF93EC0184E00E941B
:100170004900209791F480E30E9479000EC0CE01DF
:100180006AE070E00E946601805D0E947900CE0105
:100190006AE070E00E946601EB01209781F786E03B
:1001A0000E944900DF91CF910895EF92FF920F9343
:1001B0001F93CF93DF931FEF17BB0E94680014BB00
:1001C0001ABA80EF8BBB70EAE72EC8ECD0E060E58E
:1001D000F62E00E910E689B3807F8037C9F40E94CB
:1001E000980080E80E94490080E690E00E94A0000C
:1001F00080EC0E94490088E690E00E94A000E5BAE9
:1002000080ED97E0FE013197F1F70197D9F702C031
:100210000E94980015BA89B3807F803BB9F480E8CA
:100220000E94490083E790E00E94A00080EC0E94B9
:10023000490088E690E00E94A000F5BA80ED97E0C2
:10024000FE013197F1F70197D9F702C00E9498009B
:1002500015BA89B3807F803DB9F480E80E944900D7
:100260008CE790E00E94A00080EC0E94490088E6A4
:1002700090E00E94A00005BB80ED97E0FE01319761
:10028000F1F70197D9F702C00E94980015BA89B317
:10029000807F803EB9F480E80E94490082E890E0C7
:1002A0000E94A00080EC0E94490088E690E00E9435
:1002B000A00015BB80ED97E0FE013197F1F70197A3
:1002C000D9F702C00E94980015BA85CFAA1BBB1BA4
:1002D00051E107C0AA1FBB1FA617B70710F0A61B46
:1002E000B70B881F991F5A95A9F780959095BC0167
:0802F000CD010895F894FFCF41
:1002F800666F7277617264002064697265637469FD
:100308006F6E006261636B7761726400726967681F
:0803180074006C6566740000BE
:00000001FF
